{
  "contractName": "TodoList",
  "abi": [
    {
      "inputs": [],
      "stateMutability": "nonpayable",
      "type": "constructor"
    },
    {
      "anonymous": false,
      "inputs": [
        {
          "indexed": false,
          "internalType": "uint256",
          "name": "id",
          "type": "uint256"
        },
        {
          "indexed": false,
          "internalType": "string",
          "name": "title",
          "type": "string"
        },
        {
          "indexed": false,
          "internalType": "string",
          "name": "description",
          "type": "string"
        },
        {
          "indexed": false,
          "internalType": "string",
          "name": "status",
          "type": "string"
        },
        {
          "indexed": false,
          "internalType": "string",
          "name": "date",
          "type": "string"
        }
      ],
      "name": "TaskCreated",
      "type": "event"
    },
    {
      "anonymous": false,
      "inputs": [
        {
          "indexed": false,
          "internalType": "uint256",
          "name": "id",
          "type": "uint256"
        },
        {
          "indexed": false,
          "internalType": "string",
          "name": "title",
          "type": "string"
        },
        {
          "indexed": false,
          "internalType": "string",
          "name": "description",
          "type": "string"
        },
        {
          "indexed": false,
          "internalType": "string",
          "name": "status",
          "type": "string"
        },
        {
          "indexed": false,
          "internalType": "string",
          "name": "date",
          "type": "string"
        }
      ],
      "name": "TaskUpdated",
      "type": "event"
    },
    {
      "inputs": [],
      "name": "owner",
      "outputs": [
        {
          "internalType": "address",
          "name": "",
          "type": "address"
        }
      ],
      "stateMutability": "view",
      "type": "function"
    },
    {
      "inputs": [],
      "name": "taskCount",
      "outputs": [
        {
          "internalType": "uint256",
          "name": "",
          "type": "uint256"
        }
      ],
      "stateMutability": "view",
      "type": "function"
    },
    {
      "inputs": [],
      "name": "taskId",
      "outputs": [
        {
          "internalType": "uint256",
          "name": "",
          "type": "uint256"
        }
      ],
      "stateMutability": "view",
      "type": "function"
    },
    {
      "inputs": [
        {
          "internalType": "uint256",
          "name": "",
          "type": "uint256"
        }
      ],
      "name": "tasks",
      "outputs": [
        {
          "internalType": "uint256",
          "name": "id",
          "type": "uint256"
        },
        {
          "internalType": "string",
          "name": "title",
          "type": "string"
        },
        {
          "internalType": "string",
          "name": "description",
          "type": "string"
        },
        {
          "internalType": "string",
          "name": "status",
          "type": "string"
        },
        {
          "internalType": "string",
          "name": "date",
          "type": "string"
        }
      ],
      "stateMutability": "view",
      "type": "function"
    },
    {
      "inputs": [
        {
          "components": [
            {
              "internalType": "uint256",
              "name": "id",
              "type": "uint256"
            },
            {
              "internalType": "string",
              "name": "title",
              "type": "string"
            },
            {
              "internalType": "string",
              "name": "description",
              "type": "string"
            },
            {
              "internalType": "string",
              "name": "status",
              "type": "string"
            },
            {
              "internalType": "string",
              "name": "date",
              "type": "string"
            }
          ],
          "internalType": "struct TodoList.Task",
          "name": "_task",
          "type": "tuple"
        }
      ],
      "name": "createTask",
      "outputs": [],
      "stateMutability": "nonpayable",
      "type": "function"
    },
    {
      "inputs": [
        {
          "internalType": "uint256",
          "name": "_id",
          "type": "uint256"
        },
        {
          "components": [
            {
              "internalType": "uint256",
              "name": "id",
              "type": "uint256"
            },
            {
              "internalType": "string",
              "name": "title",
              "type": "string"
            },
            {
              "internalType": "string",
              "name": "description",
              "type": "string"
            },
            {
              "internalType": "string",
              "name": "status",
              "type": "string"
            },
            {
              "internalType": "string",
              "name": "date",
              "type": "string"
            }
          ],
          "internalType": "struct TodoList.Task",
          "name": "_task",
          "type": "tuple"
        }
      ],
      "name": "updateTask",
      "outputs": [],
      "stateMutability": "nonpayable",
      "type": "function"
    },
    {
      "inputs": [
        {
          "internalType": "uint256",
          "name": "_id",
          "type": "uint256"
        }
      ],
      "name": "getTask",
      "outputs": [
        {
          "components": [
            {
              "internalType": "uint256",
              "name": "id",
              "type": "uint256"
            },
            {
              "internalType": "string",
              "name": "title",
              "type": "string"
            },
            {
              "internalType": "string",
              "name": "description",
              "type": "string"
            },
            {
              "internalType": "string",
              "name": "status",
              "type": "string"
            },
            {
              "internalType": "string",
              "name": "date",
              "type": "string"
            }
          ],
          "internalType": "struct TodoList.Task",
          "name": "",
          "type": "tuple"
        }
      ],
      "stateMutability": "view",
      "type": "function"
    },
    {
      "inputs": [],
      "name": "getAllTasks",
      "outputs": [
        {
          "components": [
            {
              "internalType": "uint256",
              "name": "id",
              "type": "uint256"
            },
            {
              "internalType": "string",
              "name": "title",
              "type": "string"
            },
            {
              "internalType": "string",
              "name": "description",
              "type": "string"
            },
            {
              "internalType": "string",
              "name": "status",
              "type": "string"
            },
            {
              "internalType": "string",
              "name": "date",
              "type": "string"
            }
          ],
          "internalType": "struct TodoList.Task[]",
          "name": "",
          "type": "tuple[]"
        }
      ],
      "stateMutability": "view",
      "type": "function"
    }
  ],
  "bytecode": "0x6080604052600080556001805534801561001857600080fd5b5033600260006101000a81548173ffffffffffffffffffffffffffffffffffffffff021916908373ffffffffffffffffffffffffffffffffffffffff1602179055506119f4806100696000396000f3fe608060405234801561001057600080fd5b50600436106100885760003560e01c80638d9776721161005b5780638d977672146101155780638da5cb5b14610149578063b6cb58a514610167578063cbec7abd1461018557610088565b806311e336de1461008d5780631d65e77e146100a95780633322b23d146100d9578063779900b4146100f7575b600080fd5b6100a760048036038101906100a2919061104d565b6101a1565b005b6100c360048036038101906100be91906110a9565b610347565b6040516100d091906111ef565b60405180910390f35b6100e1610619565b6040516100ee9190611220565b60405180910390f35b6100ff61061f565b60405161010c9190611388565b60405180910390f35b61012f600480360381019061012a91906110a9565b610940565b6040516101409594939291906113f4565b60405180910390f35b610151610b96565b60405161015e91906114a4565b60405180910390f35b61016f610bbc565b60405161017c9190611220565b60405180910390f35b61019f600480360381019061019a91906114bf565b610bc2565b005b600260009054906101000a900473ffffffffffffffffffffffffffffffffffffffff1673ffffffffffffffffffffffffffffffffffffffff163373ffffffffffffffffffffffffffffffffffffffff1614610231576040517f08c379a00000000000000000000000000000000000000000000000000000000081526004016102289061157a565b60405180910390fd5b8160008114158015610244575060015481105b610283576040517f08c379a000000000000000000000000000000000000000000000000000000000815260040161027a906115e6565b60405180910390fd5b600060036000858152602001908152602001600020905082602001518160010190816102af9190611812565b5082604001518160020190816102c59190611812565b5082606001518160030190816102db9190611812565b5082608001518160040190816102f19190611812565b507f0d6dff7eaf3fccd2693635be43724002093dfa28694e13d17c71453d33afb4ed8484602001518560400151866060015187608001516040516103399594939291906113f4565b60405180910390a150505050565b61034f610d88565b8160008114158015610362575060015481105b6103a1576040517f08c379a0000000000000000000000000000000000000000000000000000000008152600401610398906115e6565b60405180910390fd5b600360008481526020019081526020016000206040518060a0016040529081600082015481526020016001820180546103d990611635565b80601f016020809104026020016040519081016040528092919081815260200182805461040590611635565b80156104525780601f1061042757610100808354040283529160200191610452565b820191906000526020600020905b81548152906001019060200180831161043557829003601f168201915b5050505050815260200160028201805461046b90611635565b80601f016020809104026020016040519081016040528092919081815260200182805461049790611635565b80156104e45780601f106104b9576101008083540402835291602001916104e4565b820191906000526020600020905b8154815290600101906020018083116104c757829003601f168201915b505050505081526020016003820180546104fd90611635565b80601f016020809104026020016040519081016040528092919081815260200182805461052990611635565b80156105765780601f1061054b57610100808354040283529160200191610576565b820191906000526020600020905b81548152906001019060200180831161055957829003601f168201915b5050505050815260200160048201805461058f90611635565b80601f01602080910402602001604051908101604052809291908181526020018280546105bb90611635565b80156106085780601f106105dd57610100808354040283529160200191610608565b820191906000526020600020905b8154815290600101906020018083116105eb57829003601f168201915b505050505081525050915050919050565b60015481565b60606000805467ffffffffffffffff81111561063e5761063d610e17565b5b60405190808252806020026020018201604052801561067757816020015b610664610d88565b81526020019060019003908161065c5790505b5090506000600190505b60015481101561093857600360008281526020019081526020016000206040518060a0016040529081600082015481526020016001820180546106c390611635565b80601f01602080910402602001604051908101604052809291908181526020018280546106ef90611635565b801561073c5780601f106107115761010080835404028352916020019161073c565b820191906000526020600020905b81548152906001019060200180831161071f57829003601f168201915b5050505050815260200160028201805461075590611635565b80601f016020809104026020016040519081016040528092919081815260200182805461078190611635565b80156107ce5780601f106107a3576101008083540402835291602001916107ce565b820191906000526020600020905b8154815290600101906020018083116107b157829003601f168201915b505050505081526020016003820180546107e790611635565b80601f016020809104026020016040519081016040528092919081815260200182805461081390611635565b80156108605780601f1061083557610100808354040283529160200191610860565b820191906000526020600020905b81548152906001019060200180831161084357829003601f168201915b5050505050815260200160048201805461087990611635565b80601f01602080910402602001604051908101604052809291908181526020018280546108a590611635565b80156108f25780601f106108c7576101008083540402835291602001916108f2565b820191906000526020600020905b8154815290600101906020018083116108d557829003601f168201915b505050505081525050826001836109099190611913565b8151811061091a57610919611947565b5b6020026020010181905250808061093090611976565b915050610681565b508091505090565b600360205280600052604060002060009150905080600001549080600101805461096990611635565b80601f016020809104026020016040519081016040528092919081815260200182805461099590611635565b80156109e25780601f106109b7576101008083540402835291602001916109e2565b820191906000526020600020905b8154815290600101906020018083116109c557829003601f168201915b5050505050908060020180546109f790611635565b80601f0160208091040260200160405190810160405280929190818152602001828054610a2390611635565b8015610a705780601f10610a4557610100808354040283529160200191610a70565b820191906000526020600020905b815481529060010190602001808311610a5357829003601f168201915b505050505090806003018054610a8590611635565b80601f0160208091040260200160405190810160405280929190818152602001828054610ab190611635565b8015610afe5780601f10610ad357610100808354040283529160200191610afe565b820191906000526020600020905b815481529060010190602001808311610ae157829003601f168201915b505050505090806004018054610b1390611635565b80601f0160208091040260200160405190810160405280929190818152602001828054610b3f90611635565b8015610b8c5780601f10610b6157610100808354040283529160200191610b8c565b820191906000526020600020905b815481529060010190602001808311610b6f57829003601f168201915b5050505050905085565b600260009054906101000a900473ffffffffffffffffffffffffffffffffffffffff1681565b60005481565b600260009054906101000a900473ffffffffffffffffffffffffffffffffffffffff1673ffffffffffffffffffffffffffffffffffffffff163373ffffffffffffffffffffffffffffffffffffffff1614610c52576040517f08c379a0000000000000000000000000000000000000000000000000000000008152600401610c499061157a565b60405180910390fd5b6040518060a0016040528060015481526020018260200151815260200182604001518152602001826060015181526020018260800151815250600360006001548152602001908152602001600020600082015181600001556020820151816001019081610cbf9190611812565b506040820151816002019081610cd59190611812565b506060820151816003019081610ceb9190611812565b506080820151816004019081610d019190611812565b509050507f6afcc7203227b0101f91724d0dc0cd1eb7c705ab5524bdb0e88d70f8f60c3c856001548260200151836040015184606001518560800151604051610d4e9594939291906113f4565b60405180910390a160016000815480929190610d6990611976565b9190505550600080815480929190610d8090611976565b919050555050565b6040518060a0016040528060008152602001606081526020016060815260200160608152602001606081525090565b6000604051905090565b600080fd5b600080fd5b6000819050919050565b610dde81610dcb565b8114610de957600080fd5b50565b600081359050610dfb81610dd5565b92915050565b600080fd5b6000601f19601f8301169050919050565b7f4e487b7100000000000000000000000000000000000000000000000000000000600052604160045260246000fd5b610e4f82610e06565b810181811067ffffffffffffffff82111715610e6e57610e6d610e17565b5b80604052505050565b6000610e81610db7565b9050610e8d8282610e46565b919050565b600080fd5b600080fd5b600080fd5b600067ffffffffffffffff821115610ebc57610ebb610e17565b5b610ec582610e06565b9050602081019050919050565b82818337600083830152505050565b6000610ef4610eef84610ea1565b610e77565b905082815260208101848484011115610f1057610f0f610e9c565b5b610f1b848285610ed2565b509392505050565b600082601f830112610f3857610f37610e97565b5b8135610f48848260208601610ee1565b91505092915050565b600060a08284031215610f6757610f66610e01565b5b610f7160a0610e77565b90506000610f8184828501610dec565b600083015250602082013567ffffffffffffffff811115610fa557610fa4610e92565b5b610fb184828501610f23565b602083015250604082013567ffffffffffffffff811115610fd557610fd4610e92565b5b610fe184828501610f23565b604083015250606082013567ffffffffffffffff81111561100557611004610e92565b5b61101184828501610f23565b606083015250608082013567ffffffffffffffff81111561103557611034610e92565b5b61104184828501610f23565b60808301525092915050565b6000806040838503121561106457611063610dc1565b5b600061107285828601610dec565b925050602083013567ffffffffffffffff81111561109357611092610dc6565b5b61109f85828601610f51565b9150509250929050565b6000602082840312156110bf576110be610dc1565b5b60006110cd84828501610dec565b91505092915050565b6110df81610dcb565b82525050565b600081519050919050565b600082825260208201905092915050565b60005b8381101561111f578082015181840152602081019050611104565b60008484015250505050565b6000611136826110e5565b61114081856110f0565b9350611150818560208601611101565b61115981610e06565b840191505092915050565b600060a08301600083015161117c60008601826110d6565b5060208301518482036020860152611194828261112b565b915050604083015184820360408601526111ae828261112b565b915050606083015184820360608601526111c8828261112b565b915050608083015184820360808601526111e2828261112b565b9150508091505092915050565b600060208201905081810360008301526112098184611164565b905092915050565b61121a81610dcb565b82525050565b60006020820190506112356000830184611211565b92915050565b600081519050919050565b600082825260208201905092915050565b6000819050602082019050919050565b600060a08301600083015161127f60008601826110d6565b5060208301518482036020860152611297828261112b565b915050604083015184820360408601526112b1828261112b565b915050606083015184820360608601526112cb828261112b565b915050608083015184820360808601526112e5828261112b565b9150508091505092915050565b60006112fe8383611267565b905092915050565b6000602082019050919050565b600061131e8261123b565b6113288185611246565b93508360208202850161133a85611257565b8060005b85811015611376578484038952815161135785826112f2565b945061136283611306565b925060208a0199505060018101905061133e565b50829750879550505050505092915050565b600060208201905081810360008301526113a28184611313565b905092915050565b600082825260208201905092915050565b60006113c6826110e5565b6113d081856113aa565b93506113e0818560208601611101565b6113e981610e06565b840191505092915050565b600060a0820190506114096000830188611211565b818103602083015261141b81876113bb565b9050818103604083015261142f81866113bb565b9050818103606083015261144381856113bb565b9050818103608083015261145781846113bb565b90509695505050505050565b600073ffffffffffffffffffffffffffffffffffffffff82169050919050565b600061148e82611463565b9050919050565b61149e81611483565b82525050565b60006020820190506114b96000830184611495565b92915050565b6000602082840312156114d5576114d4610dc1565b5b600082013567ffffffffffffffff8111156114f3576114f2610dc6565b5b6114ff84828501610f51565b91505092915050565b7f4f6e6c7920746865206f776e65722063616e20706572666f726d20746869732060008201527f616374696f6e0000000000000000000000000000000000000000000000000000602082015250565b60006115646026836113aa565b915061156f82611508565b604082019050919050565b6000602082019050818103600083015261159381611557565b9050919050565b7f496e76616c696420494421210000000000000000000000000000000000000000600082015250565b60006115d0600c836113aa565b91506115db8261159a565b602082019050919050565b600060208201905081810360008301526115ff816115c3565b9050919050565b7f4e487b7100000000000000000000000000000000000000000000000000000000600052602260045260246000fd5b6000600282049050600182168061164d57607f821691505b6020821081036116605761165f611606565b5b50919050565b60008190508160005260206000209050919050565b60006020601f8301049050919050565b600082821b905092915050565b6000600883026116c87fffffffffffffffffffffffffffffffffffffffffffffffffffffffffffffffff8261168b565b6116d2868361168b565b95508019841693508086168417925050509392505050565b6000819050919050565b600061170f61170a61170584610dcb565b6116ea565b610dcb565b9050919050565b6000819050919050565b611729836116f4565b61173d61173582611716565b848454611698565b825550505050565b600090565b611752611745565b61175d818484611720565b505050565b5b818110156117815761177660008261174a565b600181019050611763565b5050565b601f8211156117c65761179781611666565b6117a08461167b565b810160208510156117af578190505b6117c36117bb8561167b565b830182611762565b50505b505050565b600082821c905092915050565b60006117e9600019846008026117cb565b1980831691505092915050565b600061180283836117d8565b9150826002028217905092915050565b61181b826110e5565b67ffffffffffffffff81111561183457611833610e17565b5b61183e8254611635565b611849828285611785565b600060209050601f83116001811461187c576000841561186a578287015190505b61187485826117f6565b8655506118dc565b601f19841661188a86611666565b60005b828110156118b25784890151825560018201915060208501945060208101905061188d565b868310156118cf57848901516118cb601f8916826117d8565b8355505b6001600288020188555050505b505050505050565b7f4e487b7100000000000000000000000000000000000000000000000000000000600052601160045260246000fd5b600061191e82610dcb565b915061192983610dcb565b9250828203905081811115611941576119406118e4565b5b92915050565b7f4e487b7100000000000000000000000000000000000000000000000000000000600052603260045260246000fd5b600061198182610dcb565b91507fffffffffffffffffffffffffffffffffffffffffffffffffffffffffffffffff82036119b3576119b26118e4565b5b60018201905091905056fea2646970667358221220dab6e9e039843e2a8be185bce482595ccb5c899b4b8e31ce52356f0e2c7056a164736f6c63430008120033",
  "immutableReferences": {},
  "source": "\r\n// pragma solidity ^0.8.0;\r\n\r\n// contract TODO {\r\n//     struct Task {\r\n//         uint id;\r\n//         string title;\r\n//         string description;\r\n//         string status;\r\n//         string creationDate;\r\n//         string completionDate;\r\n//     }\r\n\r\n//     address owner;\r\n//     Task task;\r\n//     mapping(uint => Task) tasks;\r\n//     uint taskId = 1;\r\n\r\n//     modifier checkId(uint id) {\r\n//         require(id != 0 && id < taskId, \"Invalid ID!!\");\r\n//         _;\r\n//     }\r\n//     modifier checkOwner(){\r\n//         require(owner==msg.sender,\"Invalid User !!!!\");\r\n//         _;\r\n//     }\r\n\r\n//     constructor() {\r\n//         owner = msg.sender;\r\n//     }\r\n\r\n//     function createTask(\r\n//         string calldata _taskname,\r\n//         string calldata _data,\r\n//         string calldata _taskDesc,\r\n//         string calldata _taskStatus,\r\n//         string calldata _taskCreationDate,\r\n//         string calldata _taskCompletionDate\r\n//     ) public {\r\n//         tasks[taskId] = Task(\r\n//             taskId,\r\n//             _taskname,\r\n//             _taskDesc,\r\n//             _taskStatus,\r\n//             _taskCreationDate,\r\n//             _taskCompletionDate\r\n//         );\r\n//         taskId++;\r\n//     }\r\n\r\n//     //Update TASK\r\n//     function updateTask(\r\n//         uint _taskId,\r\n//         string calldata _taskname,\r\n//         string calldata _data,\r\n//         string calldata _taskDesc,\r\n//         string calldata _taskStatus,\r\n//         string calldata _taskCreationDate,\r\n//         string calldata _taskCompletionDate\r\n//     ) public {\r\n//         tasks[_taskId] = Task(\r\n//             taskId,\r\n//             _taskname,\r\n//             _taskDesc,\r\n//             _taskStatus,\r\n//             _taskCreationDate,\r\n//             _taskCompletionDate\r\n//         );\r\n//     }\r\n\r\n//     //Get All tasks\r\n//     //we cant return mapping isliye mapping ka array banaya hai\r\n//     function getAllTasks() public view returns (Task[] memory) {\r\n//         Task[] memory taskList = new Task[](taskId - 1);\r\n//         for (uint i = 0; i < taskId; i++) {\r\n//             taskList[i] = tasks[i + 1];\r\n//         }\r\n//         return taskList;\r\n//     }\r\n\r\n//     //DELETE TASK\r\n//     function deleteTask(uint _taskId) checkId(_taskId) public{\r\n//         //it will set the default value of all tasks looking as if it is deleted but not actually\r\n//         delete tasks[_taskId];\r\n//     }\r\n\r\n//     function getTask(uint _taskId) checkId(_taskId) public view returns(Task memory) {\r\n//         return tasks[_taskId];\r\n//     }\r\n// }\r\n\r\n\r\n// SPDX-License-Identifier: MIT\r\npragma solidity ^0.8.0;\r\n\r\ncontract TodoList {\r\n    uint public taskCount = 0;\r\n    uint public taskId = 1;\r\n    address public owner;\r\n\r\n    struct Task {\r\n        uint id;\r\n        string title;\r\n        string description;\r\n        string status;\r\n        string date;\r\n    }\r\n\r\n    mapping(uint => Task) public tasks;\r\n\r\n    event TaskCreated(\r\n        uint id,\r\n        string title,\r\n        string description,\r\n        string status,\r\n        string date\r\n    );\r\n\r\n    event TaskUpdated(\r\n        uint id,\r\n        string title,\r\n        string description,\r\n        string status,\r\n        string date\r\n    );\r\n\r\n    modifier checkId(uint _id) {\r\n        require(_id != 0 && _id < taskId, \"Invalid ID!!\");\r\n        _;\r\n    }\r\n\r\n    modifier onlyOwner() {\r\n        require(msg.sender == owner, \"Only the owner can perform this action\");\r\n        _;\r\n    }\r\n\r\n    constructor() {\r\n        owner = msg.sender;\r\n    }\r\n\r\n    function createTask(Task memory _task) public onlyOwner {\r\n        tasks[taskId] = Task(taskId, _task.title, _task.description, _task.status, _task.date);\r\n        emit TaskCreated(taskId, _task.title, _task.description, _task.status, _task.date);\r\n        taskId++;\r\n        taskCount++;\r\n    }\r\n\r\n    function updateTask(uint _id, Task memory _task) public onlyOwner checkId(_id) {\r\n        Task storage task = tasks[_id];\r\n        task.title = _task.title;\r\n        task.description = _task.description;\r\n        task.status = _task.status;\r\n        task.date = _task.date;\r\n        emit TaskUpdated(_id, _task.title, _task.description, _task.status, _task.date);\r\n    }\r\n\r\n    function getTask(uint _id) public view checkId(_id) returns (Task memory) {\r\n        return tasks[_id];\r\n    }\r\n\r\n    function getAllTasks() public view returns (Task[] memory) {\r\n        Task[] memory taskArray = new Task[](taskCount);\r\n        for (uint i = 1; i < taskId; i++) {\r\n            taskArray[i - 1] = tasks[i];\r\n        }\r\n        return taskArray;\r\n    }\r\n}\r\n",
  "sourcePath": "C:\\Users\\dell\\BHU\\test-project\\web\\frontend\\truffle\\contracts\\TODO.sol",
  "compiler": {
    "name": "solc",
    "version": "0.8.18+commit.87f61d96.Emscripten.clang"
  },
  "schemaVersion": "3.4.16",
  "updatedAt": "2024-07-21T09:59:45.626Z",
  "devdoc": {
    "kind": "dev",
    "methods": {},
    "version": 1
  },
  "userdoc": {
    "kind": "user",
    "methods": {},
    "version": 1
  }
}