{
  "contractName": "TODO",
  "abi": [
    {
      "inputs": [],
      "stateMutability": "nonpayable",
      "type": "constructor"
    },
    {
      "anonymous": false,
      "inputs": [
        {
          "indexed": false,
          "internalType": "uint256",
          "name": "id",
          "type": "uint256"
        },
        {
          "indexed": false,
          "internalType": "string",
          "name": "title",
          "type": "string"
        },
        {
          "indexed": false,
          "internalType": "string",
          "name": "description",
          "type": "string"
        },
        {
          "indexed": false,
          "internalType": "string",
          "name": "status",
          "type": "string"
        },
        {
          "indexed": false,
          "internalType": "string",
          "name": "date",
          "type": "string"
        }
      ],
      "name": "TaskCreated",
      "type": "event"
    },
    {
      "anonymous": false,
      "inputs": [
        {
          "indexed": false,
          "internalType": "uint256",
          "name": "id",
          "type": "uint256"
        },
        {
          "indexed": false,
          "internalType": "string",
          "name": "title",
          "type": "string"
        },
        {
          "indexed": false,
          "internalType": "string",
          "name": "description",
          "type": "string"
        },
        {
          "indexed": false,
          "internalType": "string",
          "name": "status",
          "type": "string"
        },
        {
          "indexed": false,
          "internalType": "string",
          "name": "date",
          "type": "string"
        }
      ],
      "name": "TaskUpdated",
      "type": "event"
    },
    {
      "inputs": [],
      "name": "owner",
      "outputs": [
        {
          "internalType": "address",
          "name": "",
          "type": "address"
        }
      ],
      "stateMutability": "view",
      "type": "function",
      "constant": true
    },
    {
      "inputs": [],
      "name": "taskCount",
      "outputs": [
        {
          "internalType": "uint256",
          "name": "",
          "type": "uint256"
        }
      ],
      "stateMutability": "view",
      "type": "function",
      "constant": true
    },
    {
      "inputs": [],
      "name": "taskId",
      "outputs": [
        {
          "internalType": "uint256",
          "name": "",
          "type": "uint256"
        }
      ],
      "stateMutability": "view",
      "type": "function",
      "constant": true
    },
    {
      "inputs": [
        {
          "internalType": "uint256",
          "name": "",
          "type": "uint256"
        }
      ],
      "name": "tasks",
      "outputs": [
        {
          "internalType": "uint256",
          "name": "id",
          "type": "uint256"
        },
        {
          "internalType": "string",
          "name": "title",
          "type": "string"
        },
        {
          "internalType": "string",
          "name": "description",
          "type": "string"
        },
        {
          "internalType": "string",
          "name": "status",
          "type": "string"
        },
        {
          "internalType": "string",
          "name": "date",
          "type": "string"
        }
      ],
      "stateMutability": "view",
      "type": "function",
      "constant": true
    },
    {
      "inputs": [
        {
          "components": [
            {
              "internalType": "uint256",
              "name": "id",
              "type": "uint256"
            },
            {
              "internalType": "string",
              "name": "title",
              "type": "string"
            },
            {
              "internalType": "string",
              "name": "description",
              "type": "string"
            },
            {
              "internalType": "string",
              "name": "status",
              "type": "string"
            },
            {
              "internalType": "string",
              "name": "date",
              "type": "string"
            }
          ],
          "internalType": "struct TODO.Task",
          "name": "_task",
          "type": "tuple"
        }
      ],
      "name": "createTask",
      "outputs": [],
      "stateMutability": "nonpayable",
      "type": "function"
    },
    {
      "inputs": [
        {
          "internalType": "uint256",
          "name": "_id",
          "type": "uint256"
        },
        {
          "components": [
            {
              "internalType": "uint256",
              "name": "id",
              "type": "uint256"
            },
            {
              "internalType": "string",
              "name": "title",
              "type": "string"
            },
            {
              "internalType": "string",
              "name": "description",
              "type": "string"
            },
            {
              "internalType": "string",
              "name": "status",
              "type": "string"
            },
            {
              "internalType": "string",
              "name": "date",
              "type": "string"
            }
          ],
          "internalType": "struct TODO.Task",
          "name": "_task",
          "type": "tuple"
        }
      ],
      "name": "updateTask",
      "outputs": [],
      "stateMutability": "nonpayable",
      "type": "function"
    },
    {
      "inputs": [
        {
          "internalType": "uint256",
          "name": "_id",
          "type": "uint256"
        }
      ],
      "name": "getTask",
      "outputs": [
        {
          "components": [
            {
              "internalType": "uint256",
              "name": "id",
              "type": "uint256"
            },
            {
              "internalType": "string",
              "name": "title",
              "type": "string"
            },
            {
              "internalType": "string",
              "name": "description",
              "type": "string"
            },
            {
              "internalType": "string",
              "name": "status",
              "type": "string"
            },
            {
              "internalType": "string",
              "name": "date",
              "type": "string"
            }
          ],
          "internalType": "struct TODO.Task",
          "name": "",
          "type": "tuple"
        }
      ],
      "stateMutability": "view",
      "type": "function",
      "constant": true
    },
    {
      "inputs": [],
      "name": "getAllTasks",
      "outputs": [
        {
          "components": [
            {
              "internalType": "uint256",
              "name": "id",
              "type": "uint256"
            },
            {
              "internalType": "string",
              "name": "title",
              "type": "string"
            },
            {
              "internalType": "string",
              "name": "description",
              "type": "string"
            },
            {
              "internalType": "string",
              "name": "status",
              "type": "string"
            },
            {
              "internalType": "string",
              "name": "date",
              "type": "string"
            }
          ],
          "internalType": "struct TODO.Task[]",
          "name": "",
          "type": "tuple[]"
        }
      ],
      "stateMutability": "view",
      "type": "function",
      "constant": true
    },
    {
      "inputs": [
        {
          "internalType": "uint256",
          "name": "_id",
          "type": "uint256"
        }
      ],
      "name": "deleteTask",
      "outputs": [],
      "stateMutability": "nonpayable",
      "type": "function"
    }
  ],
  "bytecode": "0x6080604052600080556001805534801561001857600080fd5b5033600260006101000a81548173ffffffffffffffffffffffffffffffffffffffff021916908373ffffffffffffffffffffffffffffffffffffffff1602179055506119ba806100696000396000f3fe608060405234801561001057600080fd5b50600436106100935760003560e01c8063779900b411610066578063779900b41461011e5780638d9776721461013c5780638da5cb5b14610170578063b6cb58a51461018e578063cbec7abd146101ac57610093565b806311e336de146100985780631d65e77e146100b45780633322b23d146100e4578063560f319214610102575b600080fd5b6100b260048036038101906100ad919061107c565b6101c8565b005b6100ce60048036038101906100c991906110d8565b6102de565b6040516100db919061121e565b60405180910390f35b6100ec6105b0565b6040516100f9919061124f565b60405180910390f35b61011c600480360381019061011791906110d8565b6105b6565b005b610126610681565b60405161013391906113b7565b60405180910390f35b610156600480360381019061015191906110d8565b6109a2565b604051610167959493929190611423565b60405180910390f35b610178610bf8565b60405161018591906114d3565b60405180910390f35b610196610c1e565b6040516101a3919061124f565b60405180910390f35b6101c660048036038101906101c191906114ee565b610c24565b005b81600081141580156101db575060015481105b61021a576040517f08c379a000000000000000000000000000000000000000000000000000000000815260040161021190611583565b60405180910390fd5b6000600360008581526020019081526020016000209050826020015181600101908161024691906117af565b50826040015181600201908161025c91906117af565b50826060015181600301908161027291906117af565b50826080015181600401908161028891906117af565b507f0d6dff7eaf3fccd2693635be43724002093dfa28694e13d17c71453d33afb4ed8484602001518560400151866060015187608001516040516102d0959493929190611423565b60405180910390a150505050565b6102e6610d5a565b81600081141580156102f9575060015481105b610338576040517f08c379a000000000000000000000000000000000000000000000000000000000815260040161032f90611583565b60405180910390fd5b600360008481526020019081526020016000206040518060a001604052908160008201548152602001600182018054610370906115d2565b80601f016020809104026020016040519081016040528092919081815260200182805461039c906115d2565b80156103e95780601f106103be576101008083540402835291602001916103e9565b820191906000526020600020905b8154815290600101906020018083116103cc57829003601f168201915b50505050508152602001600282018054610402906115d2565b80601f016020809104026020016040519081016040528092919081815260200182805461042e906115d2565b801561047b5780601f106104505761010080835404028352916020019161047b565b820191906000526020600020905b81548152906001019060200180831161045e57829003601f168201915b50505050508152602001600382018054610494906115d2565b80601f01602080910402602001604051908101604052809291908181526020018280546104c0906115d2565b801561050d5780601f106104e25761010080835404028352916020019161050d565b820191906000526020600020905b8154815290600101906020018083116104f057829003601f168201915b50505050508152602001600482018054610526906115d2565b80601f0160208091040260200160405190810160405280929190818152602001828054610552906115d2565b801561059f5780601f106105745761010080835404028352916020019161059f565b820191906000526020600020905b81548152906001019060200180831161058257829003601f168201915b505050505081525050915050919050565b60015481565b80600081141580156105c9575060015481105b610608576040517f08c379a00000000000000000000000000000000000000000000000000000000081526004016105ff90611583565b60405180910390fd5b600360008381526020019081526020016000206000808201600090556001820160006106349190610d89565b6002820160006106449190610d89565b6003820160006106549190610d89565b6004820160006106649190610d89565b5050600080815480929190610678906118b0565b91905055505050565b60606000805467ffffffffffffffff8111156106a05761069f610e46565b5b6040519080825280602002602001820160405280156106d957816020015b6106c6610d5a565b8152602001906001900390816106be5790505b5090506000600190505b60015481101561099a57600360008281526020019081526020016000206040518060a001604052908160008201548152602001600182018054610725906115d2565b80601f0160208091040260200160405190810160405280929190818152602001828054610751906115d2565b801561079e5780601f106107735761010080835404028352916020019161079e565b820191906000526020600020905b81548152906001019060200180831161078157829003601f168201915b505050505081526020016002820180546107b7906115d2565b80601f01602080910402602001604051908101604052809291908181526020018280546107e3906115d2565b80156108305780601f1061080557610100808354040283529160200191610830565b820191906000526020600020905b81548152906001019060200180831161081357829003601f168201915b50505050508152602001600382018054610849906115d2565b80601f0160208091040260200160405190810160405280929190818152602001828054610875906115d2565b80156108c25780601f10610897576101008083540402835291602001916108c2565b820191906000526020600020905b8154815290600101906020018083116108a557829003601f168201915b505050505081526020016004820180546108db906115d2565b80601f0160208091040260200160405190810160405280929190818152602001828054610907906115d2565b80156109545780601f1061092957610100808354040283529160200191610954565b820191906000526020600020905b81548152906001019060200180831161093757829003601f168201915b5050505050815250508260018361096b91906118d9565b8151811061097c5761097b61190d565b5b602002602001018190525080806109929061193c565b9150506106e3565b508091505090565b60036020528060005260406000206000915090508060000154908060010180546109cb906115d2565b80601f01602080910402602001604051908101604052809291908181526020018280546109f7906115d2565b8015610a445780601f10610a1957610100808354040283529160200191610a44565b820191906000526020600020905b815481529060010190602001808311610a2757829003601f168201915b505050505090806002018054610a59906115d2565b80601f0160208091040260200160405190810160405280929190818152602001828054610a85906115d2565b8015610ad25780601f10610aa757610100808354040283529160200191610ad2565b820191906000526020600020905b815481529060010190602001808311610ab557829003601f168201915b505050505090806003018054610ae7906115d2565b80601f0160208091040260200160405190810160405280929190818152602001828054610b13906115d2565b8015610b605780601f10610b3557610100808354040283529160200191610b60565b820191906000526020600020905b815481529060010190602001808311610b4357829003601f168201915b505050505090806004018054610b75906115d2565b80601f0160208091040260200160405190810160405280929190818152602001828054610ba1906115d2565b8015610bee5780601f10610bc357610100808354040283529160200191610bee565b820191906000526020600020905b815481529060010190602001808311610bd157829003601f168201915b5050505050905085565b600260009054906101000a900473ffffffffffffffffffffffffffffffffffffffff1681565b60005481565b6040518060a0016040528060015481526020018260200151815260200182604001518152602001826060015181526020018260800151815250600360006001548152602001908152602001600020600082015181600001556020820151816001019081610c9191906117af565b506040820151816002019081610ca791906117af565b506060820151816003019081610cbd91906117af565b506080820151816004019081610cd391906117af565b509050507f6afcc7203227b0101f91724d0dc0cd1eb7c705ab5524bdb0e88d70f8f60c3c856001548260200151836040015184606001518560800151604051610d20959493929190611423565b60405180910390a160016000815480929190610d3b9061193c565b9190505550600080815480929190610d529061193c565b919050555050565b6040518060a0016040528060008152602001606081526020016060815260200160608152602001606081525090565b508054610d95906115d2565b6000825580601f10610da75750610dc6565b601f016020900490600052602060002090810190610dc59190610dc9565b5b50565b5b80821115610de2576000816000905550600101610dca565b5090565b6000604051905090565b600080fd5b600080fd5b6000819050919050565b610e0d81610dfa565b8114610e1857600080fd5b50565b600081359050610e2a81610e04565b92915050565b600080fd5b6000601f19601f8301169050919050565b7f4e487b7100000000000000000000000000000000000000000000000000000000600052604160045260246000fd5b610e7e82610e35565b810181811067ffffffffffffffff82111715610e9d57610e9c610e46565b5b80604052505050565b6000610eb0610de6565b9050610ebc8282610e75565b919050565b600080fd5b600080fd5b600080fd5b600067ffffffffffffffff821115610eeb57610eea610e46565b5b610ef482610e35565b9050602081019050919050565b82818337600083830152505050565b6000610f23610f1e84610ed0565b610ea6565b905082815260208101848484011115610f3f57610f3e610ecb565b5b610f4a848285610f01565b509392505050565b600082601f830112610f6757610f66610ec6565b5b8135610f77848260208601610f10565b91505092915050565b600060a08284031215610f9657610f95610e30565b5b610fa060a0610ea6565b90506000610fb084828501610e1b565b600083015250602082013567ffffffffffffffff811115610fd457610fd3610ec1565b5b610fe084828501610f52565b602083015250604082013567ffffffffffffffff81111561100457611003610ec1565b5b61101084828501610f52565b604083015250606082013567ffffffffffffffff81111561103457611033610ec1565b5b61104084828501610f52565b606083015250608082013567ffffffffffffffff81111561106457611063610ec1565b5b61107084828501610f52565b60808301525092915050565b6000806040838503121561109357611092610df0565b5b60006110a185828601610e1b565b925050602083013567ffffffffffffffff8111156110c2576110c1610df5565b5b6110ce85828601610f80565b9150509250929050565b6000602082840312156110ee576110ed610df0565b5b60006110fc84828501610e1b565b91505092915050565b61110e81610dfa565b82525050565b600081519050919050565b600082825260208201905092915050565b60005b8381101561114e578082015181840152602081019050611133565b60008484015250505050565b600061116582611114565b61116f818561111f565b935061117f818560208601611130565b61118881610e35565b840191505092915050565b600060a0830160008301516111ab6000860182611105565b50602083015184820360208601526111c3828261115a565b915050604083015184820360408601526111dd828261115a565b915050606083015184820360608601526111f7828261115a565b91505060808301518482036080860152611211828261115a565b9150508091505092915050565b600060208201905081810360008301526112388184611193565b905092915050565b61124981610dfa565b82525050565b60006020820190506112646000830184611240565b92915050565b600081519050919050565b600082825260208201905092915050565b6000819050602082019050919050565b600060a0830160008301516112ae6000860182611105565b50602083015184820360208601526112c6828261115a565b915050604083015184820360408601526112e0828261115a565b915050606083015184820360608601526112fa828261115a565b91505060808301518482036080860152611314828261115a565b9150508091505092915050565b600061132d8383611296565b905092915050565b6000602082019050919050565b600061134d8261126a565b6113578185611275565b93508360208202850161136985611286565b8060005b858110156113a557848403895281516113868582611321565b945061139183611335565b925060208a0199505060018101905061136d565b50829750879550505050505092915050565b600060208201905081810360008301526113d18184611342565b905092915050565b600082825260208201905092915050565b60006113f582611114565b6113ff81856113d9565b935061140f818560208601611130565b61141881610e35565b840191505092915050565b600060a0820190506114386000830188611240565b818103602083015261144a81876113ea565b9050818103604083015261145e81866113ea565b9050818103606083015261147281856113ea565b9050818103608083015261148681846113ea565b90509695505050505050565b600073ffffffffffffffffffffffffffffffffffffffff82169050919050565b60006114bd82611492565b9050919050565b6114cd816114b2565b82525050565b60006020820190506114e860008301846114c4565b92915050565b60006020828403121561150457611503610df0565b5b600082013567ffffffffffffffff81111561152257611521610df5565b5b61152e84828501610f80565b91505092915050565b7f496e76616c696420494421210000000000000000000000000000000000000000600082015250565b600061156d600c836113d9565b915061157882611537565b602082019050919050565b6000602082019050818103600083015261159c81611560565b9050919050565b7f4e487b7100000000000000000000000000000000000000000000000000000000600052602260045260246000fd5b600060028204905060018216806115ea57607f821691505b6020821081036115fd576115fc6115a3565b5b50919050565b60008190508160005260206000209050919050565b60006020601f8301049050919050565b600082821b905092915050565b6000600883026116657fffffffffffffffffffffffffffffffffffffffffffffffffffffffffffffffff82611628565b61166f8683611628565b95508019841693508086168417925050509392505050565b6000819050919050565b60006116ac6116a76116a284610dfa565b611687565b610dfa565b9050919050565b6000819050919050565b6116c683611691565b6116da6116d2826116b3565b848454611635565b825550505050565b600090565b6116ef6116e2565b6116fa8184846116bd565b505050565b5b8181101561171e576117136000826116e7565b600181019050611700565b5050565b601f8211156117635761173481611603565b61173d84611618565b8101602085101561174c578190505b61176061175885611618565b8301826116ff565b50505b505050565b600082821c905092915050565b600061178660001984600802611768565b1980831691505092915050565b600061179f8383611775565b9150826002028217905092915050565b6117b882611114565b67ffffffffffffffff8111156117d1576117d0610e46565b5b6117db82546115d2565b6117e6828285611722565b600060209050601f8311600181146118195760008415611807578287015190505b6118118582611793565b865550611879565b601f19841661182786611603565b60005b8281101561184f5784890151825560018201915060208501945060208101905061182a565b8683101561186c5784890151611868601f891682611775565b8355505b6001600288020188555050505b505050505050565b7f4e487b7100000000000000000000000000000000000000000000000000000000600052601160045260246000fd5b60006118bb82610dfa565b9150600082036118ce576118cd611881565b5b600182039050919050565b60006118e482610dfa565b91506118ef83610dfa565b925082820390508181111561190757611906611881565b5b92915050565b7f4e487b7100000000000000000000000000000000000000000000000000000000600052603260045260246000fd5b600061194782610dfa565b91507fffffffffffffffffffffffffffffffffffffffffffffffffffffffffffffffff820361197957611978611881565b5b60018201905091905056fea26469706673582212208f0e60af1f07fccb167b87d494f0011956808cc8c90238fd517855e6eef08c0764736f6c63430008120033",
  "immutableReferences": {},
  "source": "\n// pragma solidity ^0.8.0;\n\n// contract TODO {\n//     uint public taskCount = 0;\n//     uint public taskId = 1;\n//     address public owner;\n\n//     struct Task {\n//         uint id;\n//         string title;\n//         string description;\n//         string status;\n//         string date;\n//     }\n\n//     mapping(uint => Task) public tasks;\n\n//     event TaskCreated(\n//         uint id,\n//         string title,\n//         string description,\n//         string status,\n//         string date\n//     );\n\n//     event TaskUpdated(\n//         uint id,\n//         string title,\n//         string description,\n//         string status,\n//         string date\n//     );\n\n\n//     modifier checkId(uint _id) {\n//         require(_id != 0 && _id < taskId, \"Invalid ID!!\");\n//         _;\n//     }\n\n//     // modifier onlyOwner() {\n//     //     require(msg.sender == owner, \"Only the owner can perform this action\");\n//     //     _;\n//     // }\n\n//     // constructor() {\n//     //     owner = msg.sender;\n//     // }\n\n//     function createTask(Task memory _task) public  {\n//         tasks[taskId] = Task(taskId, _task.title, _task.description, _task.status, _task.date);\n//         emit TaskCreated(taskId, _task.title, _task.description, _task.status, _task.date);\n//         taskId++;\n//         taskCount++;\n//     }\n\n//     function updateTask(uint _id, Task memory _task) public checkId(_id) {\n//         Task storage task = tasks[_id];\n//         task.title = _task.title;\n//         task.description = _task.description;\n//         task.status = _task.status;\n//         task.date = _task.date;\n//         emit TaskUpdated(_id, _task.title, _task.description, _task.status, _task.date);\n//     }\n\n//     function getTask(uint _id) public view checkId(_id) returns (Task memory) {\n//         return tasks[_id];\n//     }\n\n//     function getAllTasks() public view returns (Task[] memory) {\n//         Task[] memory taskArray = new Task[](taskCount);\n//         for (uint i = 1; i < taskId; i++) {\n//             taskArray[i - 1] = tasks[i];\n//         }\n//         return taskArray;\n//     }\n//     function deleteTask(uint _id) public checkId(_id) {\n//         delete tasks[_id];  // This will remove the task from the mapping\n//         taskCount--;  // Decrement the task count\n        \n//     }\n    \n// }\n\n\n// SPDX-License-Identifier: MIT\npragma solidity ^0.8.0;\n\ncontract TODO {\n    uint public taskCount = 0;\n    uint public taskId = 1;\n    address public owner;\n\n    struct Task {\n        uint id;\n        string title;\n        string description;\n        string status;\n        string date;\n    }\n\n    mapping(uint => Task) public tasks;\n\n    event TaskCreated(\n        uint id,\n        string title,\n        string description,\n        string status,\n        string date\n    );\n\n    event TaskUpdated(\n        uint id,\n        string title,\n        string description,\n        string status,\n        string date\n    );\n\n    modifier checkId(uint _id) {\n        require(_id != 0 && _id < taskId, \"Invalid ID!!\");\n        _;\n    }\n\n    // modifier onlyOwner() {\n    //     require(msg.sender == owner, \"Only the owner can perform this action\");\n    //     _;\n    // }\n\n    constructor() {\n        owner = msg.sender;\n    }\n\n    function createTask(Task memory _task) public  {\n        tasks[taskId] = Task(taskId, _task.title, _task.description, _task.status, _task.date);\n        emit TaskCreated(taskId, _task.title, _task.description, _task.status, _task.date);\n        taskId++;\n        taskCount++;\n    }\n\n    function updateTask(uint _id, Task memory _task) public checkId(_id) {\n        Task storage task = tasks[_id];\n        task.title = _task.title;\n        task.description = _task.description;\n        task.status = _task.status;\n        task.date = _task.date;\n        emit TaskUpdated(_id, _task.title, _task.description, _task.status, _task.date);\n    }\n\n    function getTask(uint _id) public view checkId(_id) returns (Task memory) {\n        return tasks[_id];\n    }\n\n    function getAllTasks() public view returns (Task[] memory) {\n        Task[] memory taskArray = new Task[](taskCount);\n        for (uint i = 1; i < taskId; i++) {\n            taskArray[i - 1] = tasks[i];\n        }\n        return taskArray;\n    }\n\n    function deleteTask(uint _id) public checkId(_id) {\n        delete tasks[_id];  // This will remove the task from the mapping\n        taskCount--;  // Decrement the task count\n         // Emit a TaskDeleted event\n    }\n    \n}",
  "sourcePath": "C:\\Users\\dell\\BHU\\Blockchain\\todo\\truffle\\contracts\\TODO.sol",
  "compiler": {
    "name": "solc",
    "version": "0.8.18+commit.87f61d96.Emscripten.clang"
  },
  "schemaVersion": "3.4.16",
  "updatedAt": "2024-07-24T09:50:18.372Z",
  "networkType": "ethereum",
  "devdoc": {
    "kind": "dev",
    "methods": {},
    "version": 1
  },
  "userdoc": {
    "kind": "user",
    "methods": {},
    "version": 1
  }
}