{
  "contractName": "TODO",
  "abi": [
    {
      "inputs": [],
      "stateMutability": "nonpayable",
      "type": "constructor"
    },
    {
      "anonymous": false,
      "inputs": [
        {
          "indexed": false,
          "internalType": "uint256",
          "name": "id",
          "type": "uint256"
        },
        {
          "indexed": false,
          "internalType": "string",
          "name": "title",
          "type": "string"
        },
        {
          "indexed": false,
          "internalType": "string",
          "name": "description",
          "type": "string"
        },
        {
          "indexed": false,
          "internalType": "string",
          "name": "status",
          "type": "string"
        },
        {
          "indexed": false,
          "internalType": "string",
          "name": "date",
          "type": "string"
        }
      ],
      "name": "TaskCreated",
      "type": "event"
    },
    {
      "anonymous": false,
      "inputs": [
        {
          "indexed": false,
          "internalType": "uint256",
          "name": "id",
          "type": "uint256"
        }
      ],
      "name": "TaskDeleted",
      "type": "event"
    },
    {
      "anonymous": false,
      "inputs": [
        {
          "indexed": false,
          "internalType": "uint256",
          "name": "id",
          "type": "uint256"
        },
        {
          "indexed": false,
          "internalType": "string",
          "name": "title",
          "type": "string"
        },
        {
          "indexed": false,
          "internalType": "string",
          "name": "description",
          "type": "string"
        },
        {
          "indexed": false,
          "internalType": "string",
          "name": "status",
          "type": "string"
        },
        {
          "indexed": false,
          "internalType": "string",
          "name": "date",
          "type": "string"
        }
      ],
      "name": "TaskUpdated",
      "type": "event"
    },
    {
      "inputs": [],
      "name": "owner",
      "outputs": [
        {
          "internalType": "address",
          "name": "",
          "type": "address"
        }
      ],
      "stateMutability": "view",
      "type": "function",
      "constant": true
    },
    {
      "inputs": [],
      "name": "taskCount",
      "outputs": [
        {
          "internalType": "uint256",
          "name": "",
          "type": "uint256"
        }
      ],
      "stateMutability": "view",
      "type": "function",
      "constant": true
    },
    {
      "inputs": [],
      "name": "taskId",
      "outputs": [
        {
          "internalType": "uint256",
          "name": "",
          "type": "uint256"
        }
      ],
      "stateMutability": "view",
      "type": "function",
      "constant": true
    },
    {
      "inputs": [
        {
          "internalType": "uint256",
          "name": "",
          "type": "uint256"
        }
      ],
      "name": "tasks",
      "outputs": [
        {
          "internalType": "uint256",
          "name": "id",
          "type": "uint256"
        },
        {
          "internalType": "string",
          "name": "title",
          "type": "string"
        },
        {
          "internalType": "string",
          "name": "description",
          "type": "string"
        },
        {
          "internalType": "string",
          "name": "status",
          "type": "string"
        },
        {
          "internalType": "string",
          "name": "date",
          "type": "string"
        }
      ],
      "stateMutability": "view",
      "type": "function",
      "constant": true
    },
    {
      "inputs": [
        {
          "components": [
            {
              "internalType": "uint256",
              "name": "id",
              "type": "uint256"
            },
            {
              "internalType": "string",
              "name": "title",
              "type": "string"
            },
            {
              "internalType": "string",
              "name": "description",
              "type": "string"
            },
            {
              "internalType": "string",
              "name": "status",
              "type": "string"
            },
            {
              "internalType": "string",
              "name": "date",
              "type": "string"
            }
          ],
          "internalType": "struct TODO.Task",
          "name": "_task",
          "type": "tuple"
        }
      ],
      "name": "createTask",
      "outputs": [],
      "stateMutability": "nonpayable",
      "type": "function"
    },
    {
      "inputs": [
        {
          "internalType": "uint256",
          "name": "_id",
          "type": "uint256"
        },
        {
          "components": [
            {
              "internalType": "uint256",
              "name": "id",
              "type": "uint256"
            },
            {
              "internalType": "string",
              "name": "title",
              "type": "string"
            },
            {
              "internalType": "string",
              "name": "description",
              "type": "string"
            },
            {
              "internalType": "string",
              "name": "status",
              "type": "string"
            },
            {
              "internalType": "string",
              "name": "date",
              "type": "string"
            }
          ],
          "internalType": "struct TODO.Task",
          "name": "_task",
          "type": "tuple"
        }
      ],
      "name": "updateTask",
      "outputs": [],
      "stateMutability": "nonpayable",
      "type": "function"
    },
    {
      "inputs": [
        {
          "internalType": "uint256",
          "name": "_id",
          "type": "uint256"
        }
      ],
      "name": "getTask",
      "outputs": [
        {
          "components": [
            {
              "internalType": "uint256",
              "name": "id",
              "type": "uint256"
            },
            {
              "internalType": "string",
              "name": "title",
              "type": "string"
            },
            {
              "internalType": "string",
              "name": "description",
              "type": "string"
            },
            {
              "internalType": "string",
              "name": "status",
              "type": "string"
            },
            {
              "internalType": "string",
              "name": "date",
              "type": "string"
            }
          ],
          "internalType": "struct TODO.Task",
          "name": "",
          "type": "tuple"
        }
      ],
      "stateMutability": "view",
      "type": "function",
      "constant": true
    },
    {
      "inputs": [],
      "name": "getAllTasks",
      "outputs": [
        {
          "components": [
            {
              "internalType": "uint256",
              "name": "id",
              "type": "uint256"
            },
            {
              "internalType": "string",
              "name": "title",
              "type": "string"
            },
            {
              "internalType": "string",
              "name": "description",
              "type": "string"
            },
            {
              "internalType": "string",
              "name": "status",
              "type": "string"
            },
            {
              "internalType": "string",
              "name": "date",
              "type": "string"
            }
          ],
          "internalType": "struct TODO.Task[]",
          "name": "",
          "type": "tuple[]"
        }
      ],
      "stateMutability": "view",
      "type": "function",
      "constant": true
    },
    {
      "inputs": [
        {
          "internalType": "uint256",
          "name": "_id",
          "type": "uint256"
        }
      ],
      "name": "deleteTask",
      "outputs": [],
      "stateMutability": "nonpayable",
      "type": "function"
    }
  ],
  "bytecode": "0x6080604052600080556001805534801561001857600080fd5b5033600260006101000a81548173ffffffffffffffffffffffffffffffffffffffff021916908373ffffffffffffffffffffffffffffffffffffffff1602179055506119f1806100696000396000f3fe608060405234801561001057600080fd5b50600436106100935760003560e01c8063779900b411610066578063779900b41461011e5780638d9776721461013c5780638da5cb5b14610170578063b6cb58a51461018e578063cbec7abd146101ac57610093565b806311e336de146100985780631d65e77e146100b45780633322b23d146100e4578063560f319214610102575b600080fd5b6100b260048036038101906100ad91906110b3565b6101c8565b005b6100ce60048036038101906100c9919061110f565b6102de565b6040516100db9190611255565b60405180910390f35b6100ec6105b0565b6040516100f99190611286565b60405180910390f35b61011c6004803603810190610117919061110f565b6105b6565b005b6101266106b8565b60405161013391906113ee565b60405180910390f35b6101566004803603810190610151919061110f565b6109d9565b60405161016795949392919061145a565b60405180910390f35b610178610c2f565b604051610185919061150a565b60405180910390f35b610196610c55565b6040516101a39190611286565b60405180910390f35b6101c660048036038101906101c19190611525565b610c5b565b005b81600081141580156101db575060015481105b61021a576040517f08c379a0000000000000000000000000000000000000000000000000000000008152600401610211906115ba565b60405180910390fd5b6000600360008581526020019081526020016000209050826020015181600101908161024691906117e6565b50826040015181600201908161025c91906117e6565b50826060015181600301908161027291906117e6565b50826080015181600401908161028891906117e6565b507f0d6dff7eaf3fccd2693635be43724002093dfa28694e13d17c71453d33afb4ed8484602001518560400151866060015187608001516040516102d095949392919061145a565b60405180910390a150505050565b6102e6610d91565b81600081141580156102f9575060015481105b610338576040517f08c379a000000000000000000000000000000000000000000000000000000000815260040161032f906115ba565b60405180910390fd5b600360008481526020019081526020016000206040518060a00160405290816000820154815260200160018201805461037090611609565b80601f016020809104026020016040519081016040528092919081815260200182805461039c90611609565b80156103e95780601f106103be576101008083540402835291602001916103e9565b820191906000526020600020905b8154815290600101906020018083116103cc57829003601f168201915b5050505050815260200160028201805461040290611609565b80601f016020809104026020016040519081016040528092919081815260200182805461042e90611609565b801561047b5780601f106104505761010080835404028352916020019161047b565b820191906000526020600020905b81548152906001019060200180831161045e57829003601f168201915b5050505050815260200160038201805461049490611609565b80601f01602080910402602001604051908101604052809291908181526020018280546104c090611609565b801561050d5780601f106104e25761010080835404028352916020019161050d565b820191906000526020600020905b8154815290600101906020018083116104f057829003601f168201915b5050505050815260200160048201805461052690611609565b80601f016020809104026020016040519081016040528092919081815260200182805461055290611609565b801561059f5780601f106105745761010080835404028352916020019161059f565b820191906000526020600020905b81548152906001019060200180831161058257829003601f168201915b505050505081525050915050919050565b60015481565b80600081141580156105c9575060015481105b610608576040517f08c379a00000000000000000000000000000000000000000000000000000000081526004016105ff906115ba565b60405180910390fd5b600360008381526020019081526020016000206000808201600090556001820160006106349190610dc0565b6002820160006106449190610dc0565b6003820160006106549190610dc0565b6004820160006106649190610dc0565b5050600080815480929190610678906118e7565b91905055507fd078b251d950cc55c44340be1db732337ef4939a76e1367ee271ad2cb19c46af826040516106ac9190611286565b60405180910390a15050565b60606000805467ffffffffffffffff8111156106d7576106d6610e7d565b5b60405190808252806020026020018201604052801561071057816020015b6106fd610d91565b8152602001906001900390816106f55790505b5090506000600190505b6001548110156109d157600360008281526020019081526020016000206040518060a00160405290816000820154815260200160018201805461075c90611609565b80601f016020809104026020016040519081016040528092919081815260200182805461078890611609565b80156107d55780601f106107aa576101008083540402835291602001916107d5565b820191906000526020600020905b8154815290600101906020018083116107b857829003601f168201915b505050505081526020016002820180546107ee90611609565b80601f016020809104026020016040519081016040528092919081815260200182805461081a90611609565b80156108675780601f1061083c57610100808354040283529160200191610867565b820191906000526020600020905b81548152906001019060200180831161084a57829003601f168201915b5050505050815260200160038201805461088090611609565b80601f01602080910402602001604051908101604052809291908181526020018280546108ac90611609565b80156108f95780601f106108ce576101008083540402835291602001916108f9565b820191906000526020600020905b8154815290600101906020018083116108dc57829003601f168201915b5050505050815260200160048201805461091290611609565b80601f016020809104026020016040519081016040528092919081815260200182805461093e90611609565b801561098b5780601f106109605761010080835404028352916020019161098b565b820191906000526020600020905b81548152906001019060200180831161096e57829003601f168201915b505050505081525050826001836109a29190611910565b815181106109b3576109b2611944565b5b602002602001018190525080806109c990611973565b91505061071a565b508091505090565b6003602052806000526040600020600091509050806000015490806001018054610a0290611609565b80601f0160208091040260200160405190810160405280929190818152602001828054610a2e90611609565b8015610a7b5780601f10610a5057610100808354040283529160200191610a7b565b820191906000526020600020905b815481529060010190602001808311610a5e57829003601f168201915b505050505090806002018054610a9090611609565b80601f0160208091040260200160405190810160405280929190818152602001828054610abc90611609565b8015610b095780601f10610ade57610100808354040283529160200191610b09565b820191906000526020600020905b815481529060010190602001808311610aec57829003601f168201915b505050505090806003018054610b1e90611609565b80601f0160208091040260200160405190810160405280929190818152602001828054610b4a90611609565b8015610b975780601f10610b6c57610100808354040283529160200191610b97565b820191906000526020600020905b815481529060010190602001808311610b7a57829003601f168201915b505050505090806004018054610bac90611609565b80601f0160208091040260200160405190810160405280929190818152602001828054610bd890611609565b8015610c255780601f10610bfa57610100808354040283529160200191610c25565b820191906000526020600020905b815481529060010190602001808311610c0857829003601f168201915b5050505050905085565b600260009054906101000a900473ffffffffffffffffffffffffffffffffffffffff1681565b60005481565b6040518060a0016040528060015481526020018260200151815260200182604001518152602001826060015181526020018260800151815250600360006001548152602001908152602001600020600082015181600001556020820151816001019081610cc891906117e6565b506040820151816002019081610cde91906117e6565b506060820151816003019081610cf491906117e6565b506080820151816004019081610d0a91906117e6565b509050507f6afcc7203227b0101f91724d0dc0cd1eb7c705ab5524bdb0e88d70f8f60c3c856001548260200151836040015184606001518560800151604051610d5795949392919061145a565b60405180910390a160016000815480929190610d7290611973565b9190505550600080815480929190610d8990611973565b919050555050565b6040518060a0016040528060008152602001606081526020016060815260200160608152602001606081525090565b508054610dcc90611609565b6000825580601f10610dde5750610dfd565b601f016020900490600052602060002090810190610dfc9190610e00565b5b50565b5b80821115610e19576000816000905550600101610e01565b5090565b6000604051905090565b600080fd5b600080fd5b6000819050919050565b610e4481610e31565b8114610e4f57600080fd5b50565b600081359050610e6181610e3b565b92915050565b600080fd5b6000601f19601f8301169050919050565b7f4e487b7100000000000000000000000000000000000000000000000000000000600052604160045260246000fd5b610eb582610e6c565b810181811067ffffffffffffffff82111715610ed457610ed3610e7d565b5b80604052505050565b6000610ee7610e1d565b9050610ef38282610eac565b919050565b600080fd5b600080fd5b600080fd5b600067ffffffffffffffff821115610f2257610f21610e7d565b5b610f2b82610e6c565b9050602081019050919050565b82818337600083830152505050565b6000610f5a610f5584610f07565b610edd565b905082815260208101848484011115610f7657610f75610f02565b5b610f81848285610f38565b509392505050565b600082601f830112610f9e57610f9d610efd565b5b8135610fae848260208601610f47565b91505092915050565b600060a08284031215610fcd57610fcc610e67565b5b610fd760a0610edd565b90506000610fe784828501610e52565b600083015250602082013567ffffffffffffffff81111561100b5761100a610ef8565b5b61101784828501610f89565b602083015250604082013567ffffffffffffffff81111561103b5761103a610ef8565b5b61104784828501610f89565b604083015250606082013567ffffffffffffffff81111561106b5761106a610ef8565b5b61107784828501610f89565b606083015250608082013567ffffffffffffffff81111561109b5761109a610ef8565b5b6110a784828501610f89565b60808301525092915050565b600080604083850312156110ca576110c9610e27565b5b60006110d885828601610e52565b925050602083013567ffffffffffffffff8111156110f9576110f8610e2c565b5b61110585828601610fb7565b9150509250929050565b60006020828403121561112557611124610e27565b5b600061113384828501610e52565b91505092915050565b61114581610e31565b82525050565b600081519050919050565b600082825260208201905092915050565b60005b8381101561118557808201518184015260208101905061116a565b60008484015250505050565b600061119c8261114b565b6111a68185611156565b93506111b6818560208601611167565b6111bf81610e6c565b840191505092915050565b600060a0830160008301516111e2600086018261113c565b50602083015184820360208601526111fa8282611191565b915050604083015184820360408601526112148282611191565b9150506060830151848203606086015261122e8282611191565b915050608083015184820360808601526112488282611191565b9150508091505092915050565b6000602082019050818103600083015261126f81846111ca565b905092915050565b61128081610e31565b82525050565b600060208201905061129b6000830184611277565b92915050565b600081519050919050565b600082825260208201905092915050565b6000819050602082019050919050565b600060a0830160008301516112e5600086018261113c565b50602083015184820360208601526112fd8282611191565b915050604083015184820360408601526113178282611191565b915050606083015184820360608601526113318282611191565b9150506080830151848203608086015261134b8282611191565b9150508091505092915050565b600061136483836112cd565b905092915050565b6000602082019050919050565b6000611384826112a1565b61138e81856112ac565b9350836020820285016113a0856112bd565b8060005b858110156113dc57848403895281516113bd8582611358565b94506113c88361136c565b925060208a019950506001810190506113a4565b50829750879550505050505092915050565b600060208201905081810360008301526114088184611379565b905092915050565b600082825260208201905092915050565b600061142c8261114b565b6114368185611410565b9350611446818560208601611167565b61144f81610e6c565b840191505092915050565b600060a08201905061146f6000830188611277565b81810360208301526114818187611421565b905081810360408301526114958186611421565b905081810360608301526114a98185611421565b905081810360808301526114bd8184611421565b90509695505050505050565b600073ffffffffffffffffffffffffffffffffffffffff82169050919050565b60006114f4826114c9565b9050919050565b611504816114e9565b82525050565b600060208201905061151f60008301846114fb565b92915050565b60006020828403121561153b5761153a610e27565b5b600082013567ffffffffffffffff81111561155957611558610e2c565b5b61156584828501610fb7565b91505092915050565b7f496e76616c696420494421210000000000000000000000000000000000000000600082015250565b60006115a4600c83611410565b91506115af8261156e565b602082019050919050565b600060208201905081810360008301526115d381611597565b9050919050565b7f4e487b7100000000000000000000000000000000000000000000000000000000600052602260045260246000fd5b6000600282049050600182168061162157607f821691505b602082108103611634576116336115da565b5b50919050565b60008190508160005260206000209050919050565b60006020601f8301049050919050565b600082821b905092915050565b60006008830261169c7fffffffffffffffffffffffffffffffffffffffffffffffffffffffffffffffff8261165f565b6116a6868361165f565b95508019841693508086168417925050509392505050565b6000819050919050565b60006116e36116de6116d984610e31565b6116be565b610e31565b9050919050565b6000819050919050565b6116fd836116c8565b611711611709826116ea565b84845461166c565b825550505050565b600090565b611726611719565b6117318184846116f4565b505050565b5b818110156117555761174a60008261171e565b600181019050611737565b5050565b601f82111561179a5761176b8161163a565b6117748461164f565b81016020851015611783578190505b61179761178f8561164f565b830182611736565b50505b505050565b600082821c905092915050565b60006117bd6000198460080261179f565b1980831691505092915050565b60006117d683836117ac565b9150826002028217905092915050565b6117ef8261114b565b67ffffffffffffffff81111561180857611807610e7d565b5b6118128254611609565b61181d828285611759565b600060209050601f831160018114611850576000841561183e578287015190505b61184885826117ca565b8655506118b0565b601f19841661185e8661163a565b60005b8281101561188657848901518255600182019150602085019450602081019050611861565b868310156118a3578489015161189f601f8916826117ac565b8355505b6001600288020188555050505b505050505050565b7f4e487b7100000000000000000000000000000000000000000000000000000000600052601160045260246000fd5b60006118f282610e31565b915060008203611905576119046118b8565b5b600182039050919050565b600061191b82610e31565b915061192683610e31565b925082820390508181111561193e5761193d6118b8565b5b92915050565b7f4e487b7100000000000000000000000000000000000000000000000000000000600052603260045260246000fd5b600061197e82610e31565b91507fffffffffffffffffffffffffffffffffffffffffffffffffffffffffffffffff82036119b0576119af6118b8565b5b60018201905091905056fea2646970667358221220d9b6507d8bb006a61e9dab2d86d735908c8782b4695fa19843acbd037db24c4f64736f6c63430008120033",
  "immutableReferences": {},
  "source": "// SPDX-License-Identifier: MIT\npragma solidity ^0.8.0;\n\ncontract TODO {\n    uint public taskCount = 0;\n    uint public taskId = 1;\n    address public owner;\n\n    struct Task {\n        uint id;\n        string title;\n        string description;\n        string status;\n        string date;\n    }\n\n    mapping(uint => Task) public tasks;\n\n    event TaskCreated(\n        uint id,\n        string title,\n        string description,\n        string status,\n        string date\n    );\n\n    event TaskUpdated(\n        uint id,\n        string title,\n        string description,\n        string status,\n        string date\n    );\n    event TaskDeleted(uint id);\n\n    modifier checkId(uint _id) {\n        require(_id != 0 && _id < taskId, \"Invalid ID!!\");\n        _;\n    }\n\n    // modifier onlyOwner() {\n    //     require(msg.sender == owner, \"Only the owner can perform this action\");\n    //     _;\n    // }\n\n    constructor() {\n        owner = msg.sender;\n    }\n\n    function createTask(Task memory _task) public  {\n        tasks[taskId] = Task(taskId, _task.title, _task.description, _task.status, _task.date);\n        emit TaskCreated(taskId, _task.title, _task.description, _task.status, _task.date);\n        taskId++;\n        taskCount++;\n    }\n\n    function updateTask(uint _id, Task memory _task) public checkId(_id) {\n        Task storage task = tasks[_id];\n        task.title = _task.title;\n        task.description = _task.description;\n        task.status = _task.status;\n        task.date = _task.date;\n        emit TaskUpdated(_id, _task.title, _task.description, _task.status, _task.date);\n    }\n\n    function getTask(uint _id) public view checkId(_id) returns (Task memory) {\n        return tasks[_id];\n    }\n\n    function getAllTasks() public view returns (Task[] memory) {\n        Task[] memory taskArray = new Task[](taskCount);\n        for (uint i = 1; i < taskId; i++) {\n            taskArray[i - 1] = tasks[i];\n        }\n        return taskArray;\n    }\n    function deleteTask(uint _id) public checkId(_id) {\n        delete tasks[_id];  // This will remove the task from the mapping\n        taskCount--;  // Decrement the task count\n        emit TaskDeleted(_id);  // Emit a TaskDeleted event\n    }\n    \n}\n",
  "sourcePath": "C:\\Users\\dell\\BHU\\Blockchain\\todo\\truffle\\contracts\\TODO.sol",
  "compiler": {
    "name": "solc",
    "version": "0.8.18+commit.87f61d96.Emscripten.clang"
  },
  "schemaVersion": "3.4.16",
  "updatedAt": "2024-07-24T08:35:57.629Z",
  "networkType": "ethereum",
  "devdoc": {
    "kind": "dev",
    "methods": {},
    "version": 1
  },
  "userdoc": {
    "kind": "user",
    "methods": {},
    "version": 1
  }
}